{
  "_format": "hh-sol-artifact-1",
  "contractName": "Create",
  "sourceName": "contracts/VotingContract.sol",
  "abi": [
    {
      "inputs": [],
      "stateMutability": "nonpayable",
      "type": "constructor"
    },
    {
      "anonymous": false,
      "inputs": [
        {
          "indexed": true,
          "internalType": "uint256",
          "name": "candidateId",
          "type": "uint256"
        },
        {
          "indexed": false,
          "internalType": "string",
          "name": "age",
          "type": "string"
        },
        {
          "indexed": false,
          "internalType": "string",
          "name": "name",
          "type": "string"
        },
        {
          "indexed": false,
          "internalType": "string",
          "name": "image",
          "type": "string"
        },
        {
          "indexed": false,
          "internalType": "uint256",
          "name": "voteCount",
          "type": "uint256"
        },
        {
          "indexed": false,
          "internalType": "address",
          "name": "_address",
          "type": "address"
        },
        {
          "indexed": false,
          "internalType": "string",
          "name": "ipfs",
          "type": "string"
        }
      ],
      "name": "CandidateCreate",
      "type": "event"
    },
    {
      "anonymous": false,
      "inputs": [
        {
          "indexed": true,
          "internalType": "uint256",
          "name": "voter_voterId",
          "type": "uint256"
        },
        {
          "indexed": false,
          "internalType": "string",
          "name": "voter_name",
          "type": "string"
        },
        {
          "indexed": false,
          "internalType": "string",
          "name": "voter_image",
          "type": "string"
        },
        {
          "indexed": false,
          "internalType": "address",
          "name": "voter_address",
          "type": "address"
        },
        {
          "indexed": false,
          "internalType": "uint256",
          "name": "voter_allowed",
          "type": "uint256"
        },
        {
          "indexed": false,
          "internalType": "bool",
          "name": "voter_voted",
          "type": "bool"
        },
        {
          "indexed": false,
          "internalType": "uint256",
          "name": "voter_vote",
          "type": "uint256"
        },
        {
          "indexed": false,
          "internalType": "string",
          "name": "voter_ipfs",
          "type": "string"
        }
      ],
      "name": "VoterCreated",
      "type": "event"
    },
    {
      "anonymous": false,
      "inputs": [
        {
          "indexed": true,
          "internalType": "address",
          "name": "voterAddress",
          "type": "address"
        }
      ],
      "name": "VoterRemoved",
      "type": "event"
    },
    {
      "inputs": [],
      "name": "_candidateId",
      "outputs": [
        {
          "internalType": "uint256",
          "name": "_value",
          "type": "uint256"
        }
      ],
      "stateMutability": "view",
      "type": "function"
    },
    {
      "inputs": [],
      "name": "_voterId",
      "outputs": [
        {
          "internalType": "uint256",
          "name": "_value",
          "type": "uint256"
        }
      ],
      "stateMutability": "view",
      "type": "function"
    },
    {
      "inputs": [
        {
          "internalType": "uint256",
          "name": "",
          "type": "uint256"
        }
      ],
      "name": "candidateAddress",
      "outputs": [
        {
          "internalType": "address",
          "name": "",
          "type": "address"
        }
      ],
      "stateMutability": "view",
      "type": "function"
    },
    {
      "inputs": [
        {
          "internalType": "address",
          "name": "",
          "type": "address"
        }
      ],
      "name": "candidates",
      "outputs": [
        {
          "internalType": "uint256",
          "name": "candidateId",
          "type": "uint256"
        },
        {
          "internalType": "string",
          "name": "age",
          "type": "string"
        },
        {
          "internalType": "string",
          "name": "name",
          "type": "string"
        },
        {
          "internalType": "string",
          "name": "image",
          "type": "string"
        },
        {
          "internalType": "uint256",
          "name": "voteCount",
          "type": "uint256"
        },
        {
          "internalType": "address",
          "name": "_address",
          "type": "address"
        },
        {
          "internalType": "string",
          "name": "ipfs",
          "type": "string"
        }
      ],
      "stateMutability": "view",
      "type": "function"
    },
    {
      "inputs": [],
      "name": "getCandidate",
      "outputs": [
        {
          "internalType": "address[]",
          "name": "",
          "type": "address[]"
        }
      ],
      "stateMutability": "view",
      "type": "function"
    },
    {
      "inputs": [
        {
          "internalType": "address",
          "name": "_address",
          "type": "address"
        }
      ],
      "name": "getCandidateData",
      "outputs": [
        {
          "internalType": "string",
          "name": "",
          "type": "string"
        },
        {
          "internalType": "string",
          "name": "",
          "type": "string"
        },
        {
          "internalType": "uint256",
          "name": "",
          "type": "uint256"
        },
        {
          "internalType": "string",
          "name": "",
          "type": "string"
        },
        {
          "internalType": "uint256",
          "name": "",
          "type": "uint256"
        },
        {
          "internalType": "string",
          "name": "",
          "type": "string"
        },
        {
          "internalType": "address",
          "name": "",
          "type": "address"
        }
      ],
      "stateMutability": "view",
      "type": "function"
    },
    {
      "inputs": [],
      "name": "getCandidateLength",
      "outputs": [
        {
          "internalType": "uint256",
          "name": "",
          "type": "uint256"
        }
      ],
      "stateMutability": "view",
      "type": "function"
    },
    {
      "inputs": [],
      "name": "getVotedVotersList",
      "outputs": [
        {
          "internalType": "address[]",
          "name": "",
          "type": "address[]"
        }
      ],
      "stateMutability": "view",
      "type": "function"
    },
    {
      "inputs": [
        {
          "internalType": "address",
          "name": "_address",
          "type": "address"
        }
      ],
      "name": "getVoterData",
      "outputs": [
        {
          "internalType": "uint256",
          "name": "",
          "type": "uint256"
        },
        {
          "internalType": "string",
          "name": "",
          "type": "string"
        },
        {
          "internalType": "string",
          "name": "",
          "type": "string"
        },
        {
          "internalType": "address",
          "name": "",
          "type": "address"
        },
        {
          "internalType": "string",
          "name": "",
          "type": "string"
        },
        {
          "internalType": "uint256",
          "name": "",
          "type": "uint256"
        },
        {
          "internalType": "bool",
          "name": "",
          "type": "bool"
        }
      ],
      "stateMutability": "view",
      "type": "function"
    },
    {
      "inputs": [],
      "name": "getVoterLength",
      "outputs": [
        {
          "internalType": "uint256",
          "name": "",
          "type": "uint256"
        }
      ],
      "stateMutability": "view",
      "type": "function"
    },
    {
      "inputs": [],
      "name": "getVoterList",
      "outputs": [
        {
          "internalType": "address[]",
          "name": "",
          "type": "address[]"
        }
      ],
      "stateMutability": "view",
      "type": "function"
    },
    {
      "inputs": [
        {
          "internalType": "address",
          "name": "_address",
          "type": "address"
        }
      ],
      "name": "removeVoter",
      "outputs": [],
      "stateMutability": "nonpayable",
      "type": "function"
    },
    {
      "inputs": [
        {
          "internalType": "address",
          "name": "_address",
          "type": "address"
        },
        {
          "internalType": "string",
          "name": "_age",
          "type": "string"
        },
        {
          "internalType": "string",
          "name": "_name",
          "type": "string"
        },
        {
          "internalType": "string",
          "name": "_image",
          "type": "string"
        },
        {
          "internalType": "string",
          "name": "_ipfs",
          "type": "string"
        }
      ],
      "name": "setCandidate",
      "outputs": [],
      "stateMutability": "nonpayable",
      "type": "function"
    },
    {
      "inputs": [
        {
          "internalType": "address",
          "name": "_candidateAddress",
          "type": "address"
        },
        {
          "internalType": "uint256",
          "name": "_candidateVoteId",
          "type": "uint256"
        }
      ],
      "name": "vote",
      "outputs": [],
      "stateMutability": "nonpayable",
      "type": "function"
    },
    {
      "inputs": [
        {
          "internalType": "uint256",
          "name": "",
          "type": "uint256"
        }
      ],
      "name": "votedVoters",
      "outputs": [
        {
          "internalType": "address",
          "name": "",
          "type": "address"
        }
      ],
      "stateMutability": "view",
      "type": "function"
    },
    {
      "inputs": [
        {
          "internalType": "address",
          "name": "_address",
          "type": "address"
        },
        {
          "internalType": "string",
          "name": "_name",
          "type": "string"
        },
        {
          "internalType": "string",
          "name": "_image",
          "type": "string"
        },
        {
          "internalType": "string",
          "name": "_ipfs",
          "type": "string"
        }
      ],
      "name": "voterRight",
      "outputs": [],
      "stateMutability": "nonpayable",
      "type": "function"
    },
    {
      "inputs": [
        {
          "internalType": "address",
          "name": "",
          "type": "address"
        }
      ],
      "name": "voters",
      "outputs": [
        {
          "internalType": "uint256",
          "name": "voter_voterId",
          "type": "uint256"
        },
        {
          "internalType": "string",
          "name": "voter_name",
          "type": "string"
        },
        {
          "internalType": "string",
          "name": "voter_image",
          "type": "string"
        },
        {
          "internalType": "address",
          "name": "voter_address",
          "type": "address"
        },
        {
          "internalType": "uint256",
          "name": "voter_allowed",
          "type": "uint256"
        },
        {
          "internalType": "bool",
          "name": "voter_voted",
          "type": "bool"
        },
        {
          "internalType": "uint256",
          "name": "voter_vote",
          "type": "uint256"
        },
        {
          "internalType": "string",
          "name": "voter_ipfs",
          "type": "string"
        }
      ],
      "stateMutability": "view",
      "type": "function"
    },
    {
      "inputs": [
        {
          "internalType": "uint256",
          "name": "",
          "type": "uint256"
        }
      ],
      "name": "votersAddress",
      "outputs": [
        {
          "internalType": "address",
          "name": "",
          "type": "address"
        }
      ],
      "stateMutability": "view",
      "type": "function"
    },
    {
      "inputs": [],
      "name": "votingOrganizer",
      "outputs": [
        {
          "internalType": "address",
          "name": "",
          "type": "address"
        }
      ],
      "stateMutability": "view",
      "type": "function"
    }
  ],
  "bytecode": "0x608060405234801561001057600080fd5b5033600260006101000a81548173ffffffffffffffffffffffffffffffffffffffff021916908373ffffffffffffffffffffffffffffffffffffffff160217905550612e6a806100616000396000f3fe608060405234801561001057600080fd5b50600436106101215760003560e01c80637831ffb3116100ad578063a738896711610071578063a73889671461035b578063b28d92ae14610379578063b9be315214610397578063c91ec712146103b5578063f7522a83146103d157610121565b80637831ffb31461026c57806386c1ff681461029c5780638ab66a90146102b85780638fb4cd80146102ee578063a3ec138d1461032457610121565b80633a88251a116100f45780633a88251a146101b457806343242daa146101e45780635cc48aa7146102145780635f74bbde1461023257806370218b851461024e57610121565b80630361419e1461012657806305ad45a41461014257806313182dce146101605780632a466ac71461017e575b600080fd5b610140600480360381019061013b91906120fd565b6103ef565b005b61014a610683565b60405161015791906121d1565b60405180910390f35b610168610690565b60405161017591906122aa565b60405180910390f35b610198600480360381019061019391906122cc565b61071e565b6040516101ab9796959493929190612390565b60405180910390f35b6101ce60048036038101906101c99190612447565b610b65565b6040516101db9190612474565b60405180910390f35b6101fe60048036038101906101f99190612447565b610ba4565b60405161020b9190612474565b60405180910390f35b61021c610be3565b6040516102299190612474565b60405180910390f35b61024c6004803603810190610247919061248f565b610c09565b005b610256610dd1565b60405161026391906122aa565b60405180910390f35b61028660048036038101906102819190612447565b610e5f565b6040516102939190612474565b60405180910390f35b6102b660048036038101906102b191906122cc565b610e9e565b005b6102d260048036038101906102cd91906122cc565b611256565b6040516102e597969594939291906124cf565b60405180910390f35b610308600480360381019061030391906122cc565b6114d8565b60405161031b9796959493929190612575565b60405180910390f35b61033e600480360381019061033991906122cc565b6118a0565b6040516103529897969594939291906125f9565b60405180910390f35b610363611aad565b60405161037091906121d1565b60405180910390f35b610381611ab9565b60405161038e91906122aa565b60405180910390f35b61039f611b47565b6040516103ac91906121d1565b60405180910390f35b6103cf60048036038101906103ca919061268c565b611b53565b005b6103d9611dd5565b6040516103e691906121d1565b60405180910390f35b3373ffffffffffffffffffffffffffffffffffffffff16600260009054906101000a900473ffffffffffffffffffffffffffffffffffffffff1673ffffffffffffffffffffffffffffffffffffffff161461047f576040517f08c379a0000000000000000000000000000000000000000000000000000000008152600401610476906127e9565b60405180910390fd5b6104896000611de2565b60006104956000611df8565b90506000600760008773ffffffffffffffffffffffffffffffffffffffff1673ffffffffffffffffffffffffffffffffffffffff168152602001908152602001600020905060008160040154146104eb57600080fd5b600181600401819055508481600101908051906020019061050d929190611e62565b5083816002019080519060200190610526929190611e62565b50858160030160006101000a81548173ffffffffffffffffffffffffffffffffffffffff021916908373ffffffffffffffffffffffffffffffffffffffff1602179055508181600001819055506103e8816006018190555060008160050160006101000a81548160ff021916908315150217905550828160070190805190602001906105b3929190611e62565b506006869080600181540180825580915050600190039060005260206000200160009091909190916101000a81548173ffffffffffffffffffffffffffffffffffffffff021916908373ffffffffffffffffffffffffffffffffffffffff16021790555080600001547ff5f39971dd62d9929e3a9feaa6bb77fe7c7da0001babff8a65a7e51ad0201c1986868985600401548660050160009054906101000a900460ff1687600601548860070160405161067397969594939291906128ff565b60405180910390a2505050505050565b6000600680549050905090565b6060600580548060200260200160405190810160405280929190818152602001828054801561071457602002820191906000526020600020905b8160009054906101000a900473ffffffffffffffffffffffffffffffffffffffff1673ffffffffffffffffffffffffffffffffffffffff16815260200190600101908083116106ca575b5050505050905090565b60608060006060600060606000600460008973ffffffffffffffffffffffffffffffffffffffff1673ffffffffffffffffffffffffffffffffffffffff168152602001908152602001600020600101600460008a73ffffffffffffffffffffffffffffffffffffffff1673ffffffffffffffffffffffffffffffffffffffff168152602001908152602001600020600201600460008b73ffffffffffffffffffffffffffffffffffffffff1673ffffffffffffffffffffffffffffffffffffffff16815260200190815260200160002060000154600460008c73ffffffffffffffffffffffffffffffffffffffff1673ffffffffffffffffffffffffffffffffffffffff168152602001908152602001600020600301600460008d73ffffffffffffffffffffffffffffffffffffffff1673ffffffffffffffffffffffffffffffffffffffff16815260200190815260200160002060040154600460008e73ffffffffffffffffffffffffffffffffffffffff1673ffffffffffffffffffffffffffffffffffffffff168152602001908152602001600020600601600460008f73ffffffffffffffffffffffffffffffffffffffff1673ffffffffffffffffffffffffffffffffffffffff16815260200190815260200160002060050160009054906101000a900473ffffffffffffffffffffffffffffffffffffffff1686805461092890612838565b80601f016020809104026020016040519081016040528092919081815260200182805461095490612838565b80156109a15780601f10610976576101008083540402835291602001916109a1565b820191906000526020600020905b81548152906001019060200180831161098457829003601f168201915b505050505096508580546109b490612838565b80601f01602080910402602001604051908101604052809291908181526020018280546109e090612838565b8015610a2d5780601f10610a0257610100808354040283529160200191610a2d565b820191906000526020600020905b815481529060010190602001808311610a1057829003601f168201915b50505050509550838054610a4090612838565b80601f0160208091040260200160405190810160405280929190818152602001828054610a6c90612838565b8015610ab95780601f10610a8e57610100808354040283529160200191610ab9565b820191906000526020600020905b815481529060010190602001808311610a9c57829003601f168201915b50505050509350818054610acc90612838565b80601f0160208091040260200160405190810160405280929190818152602001828054610af890612838565b8015610b455780601f10610b1a57610100808354040283529160200191610b45565b820191906000526020600020905b815481529060010190602001808311610b2857829003601f168201915b505050505091509650965096509650965096509650919395979092949650565b60038181548110610b7557600080fd5b906000526020600020016000915054906101000a900473ffffffffffffffffffffffffffffffffffffffff1681565b60068181548110610bb457600080fd5b906000526020600020016000915054906101000a900473ffffffffffffffffffffffffffffffffffffffff1681565b600260009054906101000a900473ffffffffffffffffffffffffffffffffffffffff1681565b6000600760003373ffffffffffffffffffffffffffffffffffffffff1673ffffffffffffffffffffffffffffffffffffffff16815260200190815260200160002090508060050160009054906101000a900460ff1615610c9e576040517f08c379a0000000000000000000000000000000000000000000000000000000008152600401610c95906129cf565b60405180910390fd5b600081600401541415610ce6576040517f08c379a0000000000000000000000000000000000000000000000000000000008152600401610cdd90612a3b565b60405180910390fd5b60018160050160006101000a81548160ff0219169083151502179055508181600601819055506005339080600181540180825580915050600190039060005260206000200160009091909190916101000a81548173ffffffffffffffffffffffffffffffffffffffff021916908373ffffffffffffffffffffffffffffffffffffffff1602179055508060040154600460008573ffffffffffffffffffffffffffffffffffffffff1673ffffffffffffffffffffffffffffffffffffffff1681526020019081526020016000206004016000828254610dc59190612a8a565b92505081905550505050565b60606003805480602002602001604051908101604052809291908181526020018280548015610e5557602002820191906000526020600020905b8160009054906101000a900473ffffffffffffffffffffffffffffffffffffffff1673ffffffffffffffffffffffffffffffffffffffff1681526020019060010190808311610e0b575b5050505050905090565b60058181548110610e6f57600080fd5b906000526020600020016000915054906101000a900473ffffffffffffffffffffffffffffffffffffffff1681565b3373ffffffffffffffffffffffffffffffffffffffff16600260009054906101000a900473ffffffffffffffffffffffffffffffffffffffff1673ffffffffffffffffffffffffffffffffffffffff1614610f2e576040517f08c379a0000000000000000000000000000000000000000000000000000000008152600401610f2590612b52565b60405180910390fd5b6001600760008373ffffffffffffffffffffffffffffffffffffffff1673ffffffffffffffffffffffffffffffffffffffff1681526020019081526020016000206004015414610fb3576040517f08c379a0000000000000000000000000000000000000000000000000000000008152600401610faa90612bbe565b60405180910390fd5b610fbd6000611e06565b600760008273ffffffffffffffffffffffffffffffffffffffff1673ffffffffffffffffffffffffffffffffffffffff1681526020019081526020016000206000808201600090556001820160006110159190611ee8565b6002820160006110259190611ee8565b6003820160006101000a81549073ffffffffffffffffffffffffffffffffffffffff021916905560048201600090556005820160006101000a81549060ff021916905560068201600090556007820160006110809190611ee8565b505060005b60068054905081101561120f578173ffffffffffffffffffffffffffffffffffffffff16600682815481106110bd576110bc612bde565b5b9060005260206000200160009054906101000a900473ffffffffffffffffffffffffffffffffffffffff1673ffffffffffffffffffffffffffffffffffffffff1614156111fc57600660016006805490506111189190612c0d565b8154811061112957611128612bde565b5b9060005260206000200160009054906101000a900473ffffffffffffffffffffffffffffffffffffffff166006828154811061116857611167612bde565b5b9060005260206000200160006101000a81548173ffffffffffffffffffffffffffffffffffffffff021916908373ffffffffffffffffffffffffffffffffffffffff16021790555060068054806111c2576111c1612c41565b5b6001900381819060005260206000200160006101000a81549073ffffffffffffffffffffffffffffffffffffffff0219169055905561120f565b808061120790612c70565b915050611085565b508073ffffffffffffffffffffffffffffffffffffffff167fa14a79af012d1756818f9bd59ccfc9ad185a71df86b9392d9059d9e6faf6d64460405160405180910390a250565b600460205280600052604060002060009150905080600001549080600101805461127f90612838565b80601f01602080910402602001604051908101604052809291908181526020018280546112ab90612838565b80156112f85780601f106112cd576101008083540402835291602001916112f8565b820191906000526020600020905b8154815290600101906020018083116112db57829003601f168201915b50505050509080600201805461130d90612838565b80601f016020809104026020016040519081016040528092919081815260200182805461133990612838565b80156113865780601f1061135b57610100808354040283529160200191611386565b820191906000526020600020905b81548152906001019060200180831161136957829003601f168201915b50505050509080600301805461139b90612838565b80601f01602080910402602001604051908101604052809291908181526020018280546113c790612838565b80156114145780601f106113e957610100808354040283529160200191611414565b820191906000526020600020905b8154815290600101906020018083116113f757829003601f168201915b5050505050908060040154908060050160009054906101000a900473ffffffffffffffffffffffffffffffffffffffff169080600601805461145590612838565b80601f016020809104026020016040519081016040528092919081815260200182805461148190612838565b80156114ce5780601f106114a3576101008083540402835291602001916114ce565b820191906000526020600020905b8154815290600101906020018083116114b157829003601f168201915b5050505050905087565b600060608060006060600080600760008973ffffffffffffffffffffffffffffffffffffffff1673ffffffffffffffffffffffffffffffffffffffff16815260200190815260200160002060000154600760008a73ffffffffffffffffffffffffffffffffffffffff1673ffffffffffffffffffffffffffffffffffffffff168152602001908152602001600020600101600760008b73ffffffffffffffffffffffffffffffffffffffff1673ffffffffffffffffffffffffffffffffffffffff168152602001908152602001600020600201600760008c73ffffffffffffffffffffffffffffffffffffffff1673ffffffffffffffffffffffffffffffffffffffff16815260200190815260200160002060030160009054906101000a900473ffffffffffffffffffffffffffffffffffffffff16600760008d73ffffffffffffffffffffffffffffffffffffffff1673ffffffffffffffffffffffffffffffffffffffff168152602001908152602001600020600701600760008e73ffffffffffffffffffffffffffffffffffffffff1673ffffffffffffffffffffffffffffffffffffffff16815260200190815260200160002060040154600760008f73ffffffffffffffffffffffffffffffffffffffff1673ffffffffffffffffffffffffffffffffffffffff16815260200190815260200160002060050160009054906101000a900460ff168580546116ef90612838565b80601f016020809104026020016040519081016040528092919081815260200182805461171b90612838565b80156117685780601f1061173d57610100808354040283529160200191611768565b820191906000526020600020905b81548152906001019060200180831161174b57829003601f168201915b5050505050955084805461177b90612838565b80601f01602080910402602001604051908101604052809291908181526020018280546117a790612838565b80156117f45780601f106117c9576101008083540402835291602001916117f4565b820191906000526020600020905b8154815290600101906020018083116117d757829003601f168201915b5050505050945082805461180790612838565b80601f016020809104026020016040519081016040528092919081815260200182805461183390612838565b80156118805780601f1061185557610100808354040283529160200191611880565b820191906000526020600020905b81548152906001019060200180831161186357829003601f168201915b505050505092509650965096509650965096509650919395979092949650565b60076020528060005260406000206000915090508060000154908060010180546118c990612838565b80601f01602080910402602001604051908101604052809291908181526020018280546118f590612838565b80156119425780601f1061191757610100808354040283529160200191611942565b820191906000526020600020905b81548152906001019060200180831161192557829003601f168201915b50505050509080600201805461195790612838565b80601f016020809104026020016040519081016040528092919081815260200182805461198390612838565b80156119d05780601f106119a5576101008083540402835291602001916119d0565b820191906000526020600020905b8154815290600101906020018083116119b357829003601f168201915b5050505050908060030160009054906101000a900473ffffffffffffffffffffffffffffffffffffffff16908060040154908060050160009054906101000a900460ff1690806006015490806007018054611a2a90612838565b80601f0160208091040260200160405190810160405280929190818152602001828054611a5690612838565b8015611aa35780601f10611a7857610100808354040283529160200191611aa3565b820191906000526020600020905b815481529060010190602001808311611a8657829003601f168201915b5050505050905088565b60018060000154905081565b60606006805480602002602001604051908101604052809291908181526020018280548015611b3d57602002820191906000526020600020905b8160009054906101000a900473ffffffffffffffffffffffffffffffffffffffff1673ffffffffffffffffffffffffffffffffffffffff1681526020019060010190808311611af3575b5050505050905090565b60008060000154905081565b3373ffffffffffffffffffffffffffffffffffffffff16600260009054906101000a900473ffffffffffffffffffffffffffffffffffffffff1673ffffffffffffffffffffffffffffffffffffffff1614611be3576040517f08c379a0000000000000000000000000000000000000000000000000000000008152600401611bda90612d2b565b60405180910390fd5b611bed6001611de2565b6000611bf96001611df8565b90506000600460008873ffffffffffffffffffffffffffffffffffffffff1673ffffffffffffffffffffffffffffffffffffffff168152602001908152602001600020905085816001019080519060200190611c56929190611e62565b5084816002019080519060200190611c6f929190611e62565b5081816000018190555083816003019080519060200190611c91929190611e62565b5060008160040181905550868160050160006101000a81548173ffffffffffffffffffffffffffffffffffffffff021916908373ffffffffffffffffffffffffffffffffffffffff16021790555082816006019080519060200190611cf7929190611e62565b506003879080600181540180825580915050600190039060005260206000200160009091909190916101000a81548173ffffffffffffffffffffffffffffffffffffffff021916908373ffffffffffffffffffffffffffffffffffffffff16021790555080600001547fd297f12b256bb8485a6013fb5e302017018123e99a0ebb20756c09e1707b4b9087878785600401548660050160009054906101000a900473ffffffffffffffffffffffffffffffffffffffff1687600601604051611dc496959493929190612d4b565b60405180910390a250505050505050565b6000600380549050905090565b6001816000016000828254019250508190555050565b600081600001549050919050565b60008160000154905060008111611e52576040517f08c379a0000000000000000000000000000000000000000000000000000000008152600401611e4990612e14565b60405180910390fd5b6001810382600001819055505050565b828054611e6e90612838565b90600052602060002090601f016020900481019282611e905760008555611ed7565b82601f10611ea957805160ff1916838001178555611ed7565b82800160010185558215611ed7579182015b82811115611ed6578251825591602001919060010190611ebb565b5b509050611ee49190611f28565b5090565b508054611ef490612838565b6000825580601f10611f065750611f25565b601f016020900490600052602060002090810190611f249190611f28565b5b50565b5b80821115611f41576000816000905550600101611f29565b5090565b6000604051905090565b600080fd5b600080fd5b600073ffffffffffffffffffffffffffffffffffffffff82169050919050565b6000611f8482611f59565b9050919050565b611f9481611f79565b8114611f9f57600080fd5b50565b600081359050611fb181611f8b565b92915050565b600080fd5b600080fd5b6000601f19601f8301169050919050565b7f4e487b7100000000000000000000000000000000000000000000000000000000600052604160045260246000fd5b61200a82611fc1565b810181811067ffffffffffffffff8211171561202957612028611fd2565b5b80604052505050565b600061203c611f45565b90506120488282612001565b919050565b600067ffffffffffffffff82111561206857612067611fd2565b5b61207182611fc1565b9050602081019050919050565b82818337600083830152505050565b60006120a061209b8461204d565b612032565b9050828152602081018484840111156120bc576120bb611fbc565b5b6120c784828561207e565b509392505050565b600082601f8301126120e4576120e3611fb7565b5b81356120f484826020860161208d565b91505092915050565b6000806000806080858703121561211757612116611f4f565b5b600061212587828801611fa2565b945050602085013567ffffffffffffffff81111561214657612145611f54565b5b612152878288016120cf565b935050604085013567ffffffffffffffff81111561217357612172611f54565b5b61217f878288016120cf565b925050606085013567ffffffffffffffff8111156121a05761219f611f54565b5b6121ac878288016120cf565b91505092959194509250565b6000819050919050565b6121cb816121b8565b82525050565b60006020820190506121e660008301846121c2565b92915050565b600081519050919050565b600082825260208201905092915050565b6000819050602082019050919050565b61222181611f79565b82525050565b60006122338383612218565b60208301905092915050565b6000602082019050919050565b6000612257826121ec565b61226181856121f7565b935061226c83612208565b8060005b8381101561229d5781516122848882612227565b975061228f8361223f565b925050600181019050612270565b5085935050505092915050565b600060208201905081810360008301526122c4818461224c565b905092915050565b6000602082840312156122e2576122e1611f4f565b5b60006122f084828501611fa2565b91505092915050565b600081519050919050565b600082825260208201905092915050565b60005b83811015612333578082015181840152602081019050612318565b83811115612342576000848401525b50505050565b6000612353826122f9565b61235d8185612304565b935061236d818560208601612315565b61237681611fc1565b840191505092915050565b61238a81611f79565b82525050565b600060e08201905081810360008301526123aa818a612348565b905081810360208301526123be8189612348565b90506123cd60408301886121c2565b81810360608301526123df8187612348565b90506123ee60808301866121c2565b81810360a08301526124008185612348565b905061240f60c0830184612381565b98975050505050505050565b612424816121b8565b811461242f57600080fd5b50565b6000813590506124418161241b565b92915050565b60006020828403121561245d5761245c611f4f565b5b600061246b84828501612432565b91505092915050565b60006020820190506124896000830184612381565b92915050565b600080604083850312156124a6576124a5611f4f565b5b60006124b485828601611fa2565b92505060206124c585828601612432565b9150509250929050565b600060e0820190506124e4600083018a6121c2565b81810360208301526124f68189612348565b9050818103604083015261250a8188612348565b9050818103606083015261251e8187612348565b905061252d60808301866121c2565b61253a60a0830185612381565b81810360c083015261254c8184612348565b905098975050505050505050565b60008115159050919050565b61256f8161255a565b82525050565b600060e08201905061258a600083018a6121c2565b818103602083015261259c8189612348565b905081810360408301526125b08188612348565b90506125bf6060830187612381565b81810360808301526125d18186612348565b90506125e060a08301856121c2565b6125ed60c0830184612566565b98975050505050505050565b60006101008201905061260f600083018b6121c2565b8181036020830152612621818a612348565b905081810360408301526126358189612348565b90506126446060830188612381565b61265160808301876121c2565b61265e60a0830186612566565b61266b60c08301856121c2565b81810360e083015261267d8184612348565b90509998505050505050505050565b600080600080600060a086880312156126a8576126a7611f4f565b5b60006126b688828901611fa2565b955050602086013567ffffffffffffffff8111156126d7576126d6611f54565b5b6126e3888289016120cf565b945050604086013567ffffffffffffffff81111561270457612703611f54565b5b612710888289016120cf565b935050606086013567ffffffffffffffff81111561273157612730611f54565b5b61273d888289016120cf565b925050608086013567ffffffffffffffff81111561275e5761275d611f54565b5b61276a888289016120cf565b9150509295509295909350565b7f596f752068617665206e6f20726967687420746f2070726f766964652061757460008201527f686f72697a6174696f6e20666f7220766f746500000000000000000000000000602082015250565b60006127d3603383612304565b91506127de82612777565b604082019050919050565b60006020820190508181036000830152612802816127c6565b9050919050565b7f4e487b7100000000000000000000000000000000000000000000000000000000600052602260045260246000fd5b6000600282049050600182168061285057607f821691505b6020821081141561286457612863612809565b5b50919050565b60008190508160005260206000209050919050565b6000815461288c81612838565b6128968186612304565b945060018216600081146128b157600181146128c3576128f6565b60ff19831686526020860193506128f6565b6128cc8561286a565b60005b838110156128ee578154818901526001820191506020810190506128cf565b808801955050505b50505092915050565b600060e0820190508181036000830152612919818a612348565b9050818103602083015261292d8189612348565b905061293c6040830188612381565b61294960608301876121c2565b6129566080830186612566565b61296360a08301856121c2565b81810360c0830152612975818461287f565b905098975050505050505050565b7f596f75206861766520616c726561647920766f74656400000000000000000000600082015250565b60006129b9601683612304565b91506129c482612983565b602082019050919050565b600060208201905081810360008301526129e8816129ac565b9050919050565b7f596f752068617665206e6f20726967687420746f20766f746500000000000000600082015250565b6000612a25601983612304565b9150612a30826129ef565b602082019050919050565b60006020820190508181036000830152612a5481612a18565b9050919050565b7f4e487b7100000000000000000000000000000000000000000000000000000000600052601160045260246000fd5b6000612a95826121b8565b9150612aa0836121b8565b9250827fffffffffffffffffffffffffffffffffffffffffffffffffffffffffffffffff03821115612ad557612ad4612a5b565b5b828201905092915050565b7f596f752068617665206e6f20726967687420746f2072656d6f7665207468697360008201527f20766f7465720000000000000000000000000000000000000000000000000000602082015250565b6000612b3c602683612304565b9150612b4782612ae0565b604082019050919050565b60006020820190508181036000830152612b6b81612b2f565b9050919050565b7f566f74657220646f6573206e6f74206578697374000000000000000000000000600082015250565b6000612ba8601483612304565b9150612bb382612b72565b602082019050919050565b60006020820190508181036000830152612bd781612b9b565b9050919050565b7f4e487b7100000000000000000000000000000000000000000000000000000000600052603260045260246000fd5b6000612c18826121b8565b9150612c23836121b8565b925082821015612c3657612c35612a5b565b5b828203905092915050565b7f4e487b7100000000000000000000000000000000000000000000000000000000600052603160045260246000fd5b6000612c7b826121b8565b91507fffffffffffffffffffffffffffffffffffffffffffffffffffffffffffffffff821415612cae57612cad612a5b565b5b600182019050919050565b7f596f752068617665206e6f20617574686f72697a6174696f6e20746f2073657460008201527f2043616e64696461746500000000000000000000000000000000000000000000602082015250565b6000612d15602a83612304565b9150612d2082612cb9565b604082019050919050565b60006020820190508181036000830152612d4481612d08565b9050919050565b600060c0820190508181036000830152612d658189612348565b90508181036020830152612d798188612348565b90508181036040830152612d8d8187612348565b9050612d9c60608301866121c2565b612da96080830185612381565b81810360a0830152612dbb818461287f565b9050979650505050505050565b7f436f756e7465723a2064656372656d656e74206f766572666c6f770000000000600082015250565b6000612dfe601b83612304565b9150612e0982612dc8565b602082019050919050565b60006020820190508181036000830152612e2d81612df1565b905091905056fea2646970667358221220253e8daa94e3fb827aba23f8555b1e4eb67d18a4dca84d0ab62c54357aa7971e64736f6c63430008090033",
  "linkReferences": {},
  "deployedLinkReferences": {}
}