{
  "_format": "hh-sol-artifact-1",
  "contractName": "Create",
  "sourceName": "contracts/VotingContract.sol",
  "abi": [
    {
      "inputs": [],
      "stateMutability": "nonpayable",
      "type": "constructor"
    },
    {
      "anonymous": false,
      "inputs": [
        {
          "indexed": true,
          "internalType": "uint256",
          "name": "candidateId",
          "type": "uint256"
        },
        {
          "indexed": false,
          "internalType": "string",
          "name": "age",
          "type": "string"
        },
        {
          "indexed": false,
          "internalType": "string",
          "name": "name",
          "type": "string"
        },
        {
          "indexed": false,
          "internalType": "string",
          "name": "image",
          "type": "string"
        },
        {
          "indexed": false,
          "internalType": "uint256",
          "name": "voteCount",
          "type": "uint256"
        },
        {
          "indexed": false,
          "internalType": "address",
          "name": "_address",
          "type": "address"
        },
        {
          "indexed": false,
          "internalType": "string",
          "name": "ipfs",
          "type": "string"
        }
      ],
      "name": "CandidateCreate",
      "type": "event"
    },
    {
      "anonymous": false,
      "inputs": [
        {
          "indexed": true,
          "internalType": "address",
          "name": "candidateAddress",
          "type": "address"
        }
      ],
      "name": "CandidateRemoved",
      "type": "event"
    },
    {
      "anonymous": false,
      "inputs": [
        {
          "indexed": true,
          "internalType": "uint256",
          "name": "voter_voterId",
          "type": "uint256"
        },
        {
          "indexed": false,
          "internalType": "string",
          "name": "voter_name",
          "type": "string"
        },
        {
          "indexed": false,
          "internalType": "string",
          "name": "voter_image",
          "type": "string"
        },
        {
          "indexed": false,
          "internalType": "address",
          "name": "voter_address",
          "type": "address"
        },
        {
          "indexed": false,
          "internalType": "uint256",
          "name": "voter_allowed",
          "type": "uint256"
        },
        {
          "indexed": false,
          "internalType": "bool",
          "name": "voter_voted",
          "type": "bool"
        },
        {
          "indexed": false,
          "internalType": "uint256",
          "name": "voter_vote",
          "type": "uint256"
        },
        {
          "indexed": false,
          "internalType": "string",
          "name": "voter_ipfs",
          "type": "string"
        }
      ],
      "name": "VoterCreated",
      "type": "event"
    },
    {
      "anonymous": false,
      "inputs": [
        {
          "indexed": true,
          "internalType": "address",
          "name": "voterAddress",
          "type": "address"
        }
      ],
      "name": "VoterRemoved",
      "type": "event"
    },
    {
      "inputs": [],
      "name": "_candidateId",
      "outputs": [
        {
          "internalType": "uint256",
          "name": "_value",
          "type": "uint256"
        }
      ],
      "stateMutability": "view",
      "type": "function"
    },
    {
      "inputs": [],
      "name": "_voterId",
      "outputs": [
        {
          "internalType": "uint256",
          "name": "_value",
          "type": "uint256"
        }
      ],
      "stateMutability": "view",
      "type": "function"
    },
    {
      "inputs": [
        {
          "internalType": "uint256",
          "name": "",
          "type": "uint256"
        }
      ],
      "name": "candidateAddress",
      "outputs": [
        {
          "internalType": "address",
          "name": "",
          "type": "address"
        }
      ],
      "stateMutability": "view",
      "type": "function"
    },
    {
      "inputs": [
        {
          "internalType": "address",
          "name": "",
          "type": "address"
        }
      ],
      "name": "candidates",
      "outputs": [
        {
          "internalType": "uint256",
          "name": "candidateId",
          "type": "uint256"
        },
        {
          "internalType": "string",
          "name": "age",
          "type": "string"
        },
        {
          "internalType": "string",
          "name": "name",
          "type": "string"
        },
        {
          "internalType": "string",
          "name": "image",
          "type": "string"
        },
        {
          "internalType": "uint256",
          "name": "voteCount",
          "type": "uint256"
        },
        {
          "internalType": "address",
          "name": "_address",
          "type": "address"
        },
        {
          "internalType": "string",
          "name": "ipfs",
          "type": "string"
        }
      ],
      "stateMutability": "view",
      "type": "function"
    },
    {
      "inputs": [],
      "name": "getCandidate",
      "outputs": [
        {
          "internalType": "address[]",
          "name": "",
          "type": "address[]"
        }
      ],
      "stateMutability": "view",
      "type": "function"
    },
    {
      "inputs": [
        {
          "internalType": "address",
          "name": "_address",
          "type": "address"
        }
      ],
      "name": "getCandidateData",
      "outputs": [
        {
          "internalType": "string",
          "name": "",
          "type": "string"
        },
        {
          "internalType": "string",
          "name": "",
          "type": "string"
        },
        {
          "internalType": "uint256",
          "name": "",
          "type": "uint256"
        },
        {
          "internalType": "string",
          "name": "",
          "type": "string"
        },
        {
          "internalType": "uint256",
          "name": "",
          "type": "uint256"
        },
        {
          "internalType": "string",
          "name": "",
          "type": "string"
        },
        {
          "internalType": "address",
          "name": "",
          "type": "address"
        }
      ],
      "stateMutability": "view",
      "type": "function"
    },
    {
      "inputs": [],
      "name": "getCandidateLength",
      "outputs": [
        {
          "internalType": "uint256",
          "name": "",
          "type": "uint256"
        }
      ],
      "stateMutability": "view",
      "type": "function"
    },
    {
      "inputs": [],
      "name": "getVotedVotersList",
      "outputs": [
        {
          "internalType": "address[]",
          "name": "",
          "type": "address[]"
        }
      ],
      "stateMutability": "view",
      "type": "function"
    },
    {
      "inputs": [
        {
          "internalType": "address",
          "name": "_address",
          "type": "address"
        }
      ],
      "name": "getVoterData",
      "outputs": [
        {
          "internalType": "uint256",
          "name": "",
          "type": "uint256"
        },
        {
          "internalType": "string",
          "name": "",
          "type": "string"
        },
        {
          "internalType": "string",
          "name": "",
          "type": "string"
        },
        {
          "internalType": "address",
          "name": "",
          "type": "address"
        },
        {
          "internalType": "string",
          "name": "",
          "type": "string"
        },
        {
          "internalType": "uint256",
          "name": "",
          "type": "uint256"
        },
        {
          "internalType": "bool",
          "name": "",
          "type": "bool"
        }
      ],
      "stateMutability": "view",
      "type": "function"
    },
    {
      "inputs": [],
      "name": "getVoterLength",
      "outputs": [
        {
          "internalType": "uint256",
          "name": "",
          "type": "uint256"
        }
      ],
      "stateMutability": "view",
      "type": "function"
    },
    {
      "inputs": [],
      "name": "getVoterList",
      "outputs": [
        {
          "internalType": "address[]",
          "name": "",
          "type": "address[]"
        }
      ],
      "stateMutability": "view",
      "type": "function"
    },
    {
      "inputs": [
        {
          "internalType": "address",
          "name": "_address",
          "type": "address"
        }
      ],
      "name": "removeCandidate",
      "outputs": [],
      "stateMutability": "nonpayable",
      "type": "function"
    },
    {
      "inputs": [
        {
          "internalType": "address",
          "name": "_address",
          "type": "address"
        }
      ],
      "name": "removeVoter",
      "outputs": [],
      "stateMutability": "nonpayable",
      "type": "function"
    },
    {
      "inputs": [
        {
          "internalType": "address",
          "name": "_address",
          "type": "address"
        },
        {
          "internalType": "string",
          "name": "_age",
          "type": "string"
        },
        {
          "internalType": "string",
          "name": "_name",
          "type": "string"
        },
        {
          "internalType": "string",
          "name": "_image",
          "type": "string"
        },
        {
          "internalType": "string",
          "name": "_ipfs",
          "type": "string"
        }
      ],
      "name": "setCandidate",
      "outputs": [],
      "stateMutability": "nonpayable",
      "type": "function"
    },
    {
      "inputs": [
        {
          "internalType": "address",
          "name": "_candidateAddress",
          "type": "address"
        },
        {
          "internalType": "uint256",
          "name": "_candidateVoteId",
          "type": "uint256"
        }
      ],
      "name": "vote",
      "outputs": [],
      "stateMutability": "nonpayable",
      "type": "function"
    },
    {
      "inputs": [
        {
          "internalType": "uint256",
          "name": "",
          "type": "uint256"
        }
      ],
      "name": "votedVoters",
      "outputs": [
        {
          "internalType": "address",
          "name": "",
          "type": "address"
        }
      ],
      "stateMutability": "view",
      "type": "function"
    },
    {
      "inputs": [
        {
          "internalType": "address",
          "name": "_address",
          "type": "address"
        },
        {
          "internalType": "string",
          "name": "_name",
          "type": "string"
        },
        {
          "internalType": "string",
          "name": "_image",
          "type": "string"
        },
        {
          "internalType": "string",
          "name": "_ipfs",
          "type": "string"
        }
      ],
      "name": "voterRight",
      "outputs": [],
      "stateMutability": "nonpayable",
      "type": "function"
    },
    {
      "inputs": [
        {
          "internalType": "address",
          "name": "",
          "type": "address"
        }
      ],
      "name": "voters",
      "outputs": [
        {
          "internalType": "uint256",
          "name": "voter_voterId",
          "type": "uint256"
        },
        {
          "internalType": "string",
          "name": "voter_name",
          "type": "string"
        },
        {
          "internalType": "string",
          "name": "voter_image",
          "type": "string"
        },
        {
          "internalType": "address",
          "name": "voter_address",
          "type": "address"
        },
        {
          "internalType": "uint256",
          "name": "voter_allowed",
          "type": "uint256"
        },
        {
          "internalType": "bool",
          "name": "voter_voted",
          "type": "bool"
        },
        {
          "internalType": "uint256",
          "name": "voter_vote",
          "type": "uint256"
        },
        {
          "internalType": "string",
          "name": "voter_ipfs",
          "type": "string"
        }
      ],
      "stateMutability": "view",
      "type": "function"
    },
    {
      "inputs": [
        {
          "internalType": "uint256",
          "name": "",
          "type": "uint256"
        }
      ],
      "name": "votersAddress",
      "outputs": [
        {
          "internalType": "address",
          "name": "",
          "type": "address"
        }
      ],
      "stateMutability": "view",
      "type": "function"
    },
    {
      "inputs": [],
      "name": "votingOrganizer",
      "outputs": [
        {
          "internalType": "address",
          "name": "",
          "type": "address"
        }
      ],
      "stateMutability": "view",
      "type": "function"
    }
  ],
  "bytecode": "0x608060405234801561001057600080fd5b5033600260006101000a81548173ffffffffffffffffffffffffffffffffffffffff021916908373ffffffffffffffffffffffffffffffffffffffff1602179055506131b8806100616000396000f3fe608060405234801561001057600080fd5b506004361061012c5760003560e01c80637831ffb3116100ad578063a738896711610071578063a738896714610382578063b28d92ae146103a0578063b9be3152146103be578063c91ec712146103dc578063f7522a83146103f85761012c565b80637831ffb31461029357806386c1ff68146102c35780638ab66a90146102df5780638fb4cd8014610315578063a3ec138d1461034b5761012c565b806343242daa116100f457806343242daa146101ef5780635cc48aa71461021f5780635f74bbde1461023d5780636dd091f91461025957806370218b85146102755761012c565b80630361419e1461013157806305ad45a41461014d57806313182dce1461016b5780632a466ac7146101895780633a88251a146101bf575b600080fd5b61014b6004803603810190610146919061244b565b610416565b005b6101556106aa565b604051610162919061251f565b60405180910390f35b6101736106b7565b60405161018091906125f8565b60405180910390f35b6101a3600480360381019061019e919061261a565b610745565b6040516101b697969594939291906126de565b60405180910390f35b6101d960048036038101906101d49190612795565b610b8c565b6040516101e691906127c2565b60405180910390f35b61020960048036038101906102049190612795565b610bcb565b60405161021691906127c2565b60405180910390f35b610227610c0a565b60405161023491906127c2565b60405180910390f35b610257600480360381019061025291906127dd565b610c30565b005b610273600480360381019061026e919061261a565b610df8565b005b61027d61111f565b60405161028a91906125f8565b60405180910390f35b6102ad60048036038101906102a89190612795565b6111ad565b6040516102ba91906127c2565b60405180910390f35b6102dd60048036038101906102d8919061261a565b6111ec565b005b6102f960048036038101906102f4919061261a565b6115a4565b60405161030c979695949392919061281d565b60405180910390f35b61032f600480360381019061032a919061261a565b611826565b60405161034297969594939291906128c3565b60405180910390f35b6103656004803603810190610360919061261a565b611bee565b604051610379989796959493929190612947565b60405180910390f35b61038a611dfb565b604051610397919061251f565b60405180910390f35b6103a8611e07565b6040516103b591906125f8565b60405180910390f35b6103c6611e95565b6040516103d3919061251f565b60405180910390f35b6103f660048036038101906103f191906129da565b611ea1565b005b610400612123565b60405161040d919061251f565b60405180910390f35b3373ffffffffffffffffffffffffffffffffffffffff16600260009054906101000a900473ffffffffffffffffffffffffffffffffffffffff1673ffffffffffffffffffffffffffffffffffffffff16146104a6576040517f08c379a000000000000000000000000000000000000000000000000000000000815260040161049d90612b37565b60405180910390fd5b6104b06000612130565b60006104bc6000612146565b90506000600760008773ffffffffffffffffffffffffffffffffffffffff1673ffffffffffffffffffffffffffffffffffffffff1681526020019081526020016000209050600081600401541461051257600080fd5b60018160040181905550848160010190805190602001906105349291906121b0565b508381600201908051906020019061054d9291906121b0565b50858160030160006101000a81548173ffffffffffffffffffffffffffffffffffffffff021916908373ffffffffffffffffffffffffffffffffffffffff1602179055508181600001819055506103e8816006018190555060008160050160006101000a81548160ff021916908315150217905550828160070190805190602001906105da9291906121b0565b506006869080600181540180825580915050600190039060005260206000200160009091909190916101000a81548173ffffffffffffffffffffffffffffffffffffffff021916908373ffffffffffffffffffffffffffffffffffffffff16021790555080600001547ff5f39971dd62d9929e3a9feaa6bb77fe7c7da0001babff8a65a7e51ad0201c1986868985600401548660050160009054906101000a900460ff1687600601548860070160405161069a9796959493929190612c4d565b60405180910390a2505050505050565b6000600680549050905090565b6060600580548060200260200160405190810160405280929190818152602001828054801561073b57602002820191906000526020600020905b8160009054906101000a900473ffffffffffffffffffffffffffffffffffffffff1673ffffffffffffffffffffffffffffffffffffffff16815260200190600101908083116106f1575b5050505050905090565b60608060006060600060606000600460008973ffffffffffffffffffffffffffffffffffffffff1673ffffffffffffffffffffffffffffffffffffffff168152602001908152602001600020600101600460008a73ffffffffffffffffffffffffffffffffffffffff1673ffffffffffffffffffffffffffffffffffffffff168152602001908152602001600020600201600460008b73ffffffffffffffffffffffffffffffffffffffff1673ffffffffffffffffffffffffffffffffffffffff16815260200190815260200160002060000154600460008c73ffffffffffffffffffffffffffffffffffffffff1673ffffffffffffffffffffffffffffffffffffffff168152602001908152602001600020600301600460008d73ffffffffffffffffffffffffffffffffffffffff1673ffffffffffffffffffffffffffffffffffffffff16815260200190815260200160002060040154600460008e73ffffffffffffffffffffffffffffffffffffffff1673ffffffffffffffffffffffffffffffffffffffff168152602001908152602001600020600601600460008f73ffffffffffffffffffffffffffffffffffffffff1673ffffffffffffffffffffffffffffffffffffffff16815260200190815260200160002060050160009054906101000a900473ffffffffffffffffffffffffffffffffffffffff1686805461094f90612b86565b80601f016020809104026020016040519081016040528092919081815260200182805461097b90612b86565b80156109c85780601f1061099d576101008083540402835291602001916109c8565b820191906000526020600020905b8154815290600101906020018083116109ab57829003601f168201915b505050505096508580546109db90612b86565b80601f0160208091040260200160405190810160405280929190818152602001828054610a0790612b86565b8015610a545780601f10610a2957610100808354040283529160200191610a54565b820191906000526020600020905b815481529060010190602001808311610a3757829003601f168201915b50505050509550838054610a6790612b86565b80601f0160208091040260200160405190810160405280929190818152602001828054610a9390612b86565b8015610ae05780601f10610ab557610100808354040283529160200191610ae0565b820191906000526020600020905b815481529060010190602001808311610ac357829003601f168201915b50505050509350818054610af390612b86565b80601f0160208091040260200160405190810160405280929190818152602001828054610b1f90612b86565b8015610b6c5780601f10610b4157610100808354040283529160200191610b6c565b820191906000526020600020905b815481529060010190602001808311610b4f57829003601f168201915b505050505091509650965096509650965096509650919395979092949650565b60038181548110610b9c57600080fd5b906000526020600020016000915054906101000a900473ffffffffffffffffffffffffffffffffffffffff1681565b60068181548110610bdb57600080fd5b906000526020600020016000915054906101000a900473ffffffffffffffffffffffffffffffffffffffff1681565b600260009054906101000a900473ffffffffffffffffffffffffffffffffffffffff1681565b6000600760003373ffffffffffffffffffffffffffffffffffffffff1673ffffffffffffffffffffffffffffffffffffffff16815260200190815260200160002090508060050160009054906101000a900460ff1615610cc5576040517f08c379a0000000000000000000000000000000000000000000000000000000008152600401610cbc90612d1d565b60405180910390fd5b600081600401541415610d0d576040517f08c379a0000000000000000000000000000000000000000000000000000000008152600401610d0490612d89565b60405180910390fd5b60018160050160006101000a81548160ff0219169083151502179055508181600601819055506005339080600181540180825580915050600190039060005260206000200160009091909190916101000a81548173ffffffffffffffffffffffffffffffffffffffff021916908373ffffffffffffffffffffffffffffffffffffffff1602179055508060040154600460008573ffffffffffffffffffffffffffffffffffffffff1673ffffffffffffffffffffffffffffffffffffffff1681526020019081526020016000206004016000828254610dec9190612dd8565b92505081905550505050565b3373ffffffffffffffffffffffffffffffffffffffff16600260009054906101000a900473ffffffffffffffffffffffffffffffffffffffff1673ffffffffffffffffffffffffffffffffffffffff1614610e88576040517f08c379a0000000000000000000000000000000000000000000000000000000008152600401610e7f90612ea0565b60405180910390fd5b610e926001612154565b600460008273ffffffffffffffffffffffffffffffffffffffff1673ffffffffffffffffffffffffffffffffffffffff168152602001908152602001600020600080820160009055600182016000610eea9190612236565b600282016000610efa9190612236565b600382016000610f0a9190612236565b60048201600090556005820160006101000a81549073ffffffffffffffffffffffffffffffffffffffff0219169055600682016000610f499190612236565b505060005b6003805490508110156110d8578173ffffffffffffffffffffffffffffffffffffffff1660038281548110610f8657610f85612ec0565b5b9060005260206000200160009054906101000a900473ffffffffffffffffffffffffffffffffffffffff1673ffffffffffffffffffffffffffffffffffffffff1614156110c55760036001600380549050610fe19190612eef565b81548110610ff257610ff1612ec0565b5b9060005260206000200160009054906101000a900473ffffffffffffffffffffffffffffffffffffffff166003828154811061103157611030612ec0565b5b9060005260206000200160006101000a81548173ffffffffffffffffffffffffffffffffffffffff021916908373ffffffffffffffffffffffffffffffffffffffff160217905550600380548061108b5761108a612f23565b5b6001900381819060005260206000200160006101000a81549073ffffffffffffffffffffffffffffffffffffffff021916905590556110d8565b80806110d090612f52565b915050610f4e565b508073ffffffffffffffffffffffffffffffffffffffff167fa9c38d4e36441185df66deccc5454d2ac0fab4f049d916441884300f6b7c605c60405160405180910390a250565b606060038054806020026020016040519081016040528092919081815260200182805480156111a357602002820191906000526020600020905b8160009054906101000a900473ffffffffffffffffffffffffffffffffffffffff1673ffffffffffffffffffffffffffffffffffffffff1681526020019060010190808311611159575b5050505050905090565b600581815481106111bd57600080fd5b906000526020600020016000915054906101000a900473ffffffffffffffffffffffffffffffffffffffff1681565b3373ffffffffffffffffffffffffffffffffffffffff16600260009054906101000a900473ffffffffffffffffffffffffffffffffffffffff1673ffffffffffffffffffffffffffffffffffffffff161461127c576040517f08c379a000000000000000000000000000000000000000000000000000000000815260040161127390612ea0565b60405180910390fd5b6001600760008373ffffffffffffffffffffffffffffffffffffffff1673ffffffffffffffffffffffffffffffffffffffff1681526020019081526020016000206004015414611301576040517f08c379a00000000000000000000000000000000000000000000000000000000081526004016112f890612fe7565b60405180910390fd5b61130b6000612154565b600760008273ffffffffffffffffffffffffffffffffffffffff1673ffffffffffffffffffffffffffffffffffffffff1681526020019081526020016000206000808201600090556001820160006113639190612236565b6002820160006113739190612236565b6003820160006101000a81549073ffffffffffffffffffffffffffffffffffffffff021916905560048201600090556005820160006101000a81549060ff021916905560068201600090556007820160006113ce9190612236565b505060005b60068054905081101561155d578173ffffffffffffffffffffffffffffffffffffffff166006828154811061140b5761140a612ec0565b5b9060005260206000200160009054906101000a900473ffffffffffffffffffffffffffffffffffffffff1673ffffffffffffffffffffffffffffffffffffffff16141561154a57600660016006805490506114669190612eef565b8154811061147757611476612ec0565b5b9060005260206000200160009054906101000a900473ffffffffffffffffffffffffffffffffffffffff16600682815481106114b6576114b5612ec0565b5b9060005260206000200160006101000a81548173ffffffffffffffffffffffffffffffffffffffff021916908373ffffffffffffffffffffffffffffffffffffffff16021790555060068054806115105761150f612f23565b5b6001900381819060005260206000200160006101000a81549073ffffffffffffffffffffffffffffffffffffffff0219169055905561155d565b808061155590612f52565b9150506113d3565b508073ffffffffffffffffffffffffffffffffffffffff167fa14a79af012d1756818f9bd59ccfc9ad185a71df86b9392d9059d9e6faf6d64460405160405180910390a250565b60046020528060005260406000206000915090508060000154908060010180546115cd90612b86565b80601f01602080910402602001604051908101604052809291908181526020018280546115f990612b86565b80156116465780601f1061161b57610100808354040283529160200191611646565b820191906000526020600020905b81548152906001019060200180831161162957829003601f168201915b50505050509080600201805461165b90612b86565b80601f016020809104026020016040519081016040528092919081815260200182805461168790612b86565b80156116d45780601f106116a9576101008083540402835291602001916116d4565b820191906000526020600020905b8154815290600101906020018083116116b757829003601f168201915b5050505050908060030180546116e990612b86565b80601f016020809104026020016040519081016040528092919081815260200182805461171590612b86565b80156117625780601f1061173757610100808354040283529160200191611762565b820191906000526020600020905b81548152906001019060200180831161174557829003601f168201915b5050505050908060040154908060050160009054906101000a900473ffffffffffffffffffffffffffffffffffffffff16908060060180546117a390612b86565b80601f01602080910402602001604051908101604052809291908181526020018280546117cf90612b86565b801561181c5780601f106117f15761010080835404028352916020019161181c565b820191906000526020600020905b8154815290600101906020018083116117ff57829003601f168201915b5050505050905087565b600060608060006060600080600760008973ffffffffffffffffffffffffffffffffffffffff1673ffffffffffffffffffffffffffffffffffffffff16815260200190815260200160002060000154600760008a73ffffffffffffffffffffffffffffffffffffffff1673ffffffffffffffffffffffffffffffffffffffff168152602001908152602001600020600101600760008b73ffffffffffffffffffffffffffffffffffffffff1673ffffffffffffffffffffffffffffffffffffffff168152602001908152602001600020600201600760008c73ffffffffffffffffffffffffffffffffffffffff1673ffffffffffffffffffffffffffffffffffffffff16815260200190815260200160002060030160009054906101000a900473ffffffffffffffffffffffffffffffffffffffff16600760008d73ffffffffffffffffffffffffffffffffffffffff1673ffffffffffffffffffffffffffffffffffffffff168152602001908152602001600020600701600760008e73ffffffffffffffffffffffffffffffffffffffff1673ffffffffffffffffffffffffffffffffffffffff16815260200190815260200160002060040154600760008f73ffffffffffffffffffffffffffffffffffffffff1673ffffffffffffffffffffffffffffffffffffffff16815260200190815260200160002060050160009054906101000a900460ff16858054611a3d90612b86565b80601f0160208091040260200160405190810160405280929190818152602001828054611a6990612b86565b8015611ab65780601f10611a8b57610100808354040283529160200191611ab6565b820191906000526020600020905b815481529060010190602001808311611a9957829003601f168201915b50505050509550848054611ac990612b86565b80601f0160208091040260200160405190810160405280929190818152602001828054611af590612b86565b8015611b425780601f10611b1757610100808354040283529160200191611b42565b820191906000526020600020905b815481529060010190602001808311611b2557829003601f168201915b50505050509450828054611b5590612b86565b80601f0160208091040260200160405190810160405280929190818152602001828054611b8190612b86565b8015611bce5780601f10611ba357610100808354040283529160200191611bce565b820191906000526020600020905b815481529060010190602001808311611bb157829003601f168201915b505050505092509650965096509650965096509650919395979092949650565b6007602052806000526040600020600091509050806000015490806001018054611c1790612b86565b80601f0160208091040260200160405190810160405280929190818152602001828054611c4390612b86565b8015611c905780601f10611c6557610100808354040283529160200191611c90565b820191906000526020600020905b815481529060010190602001808311611c7357829003601f168201915b505050505090806002018054611ca590612b86565b80601f0160208091040260200160405190810160405280929190818152602001828054611cd190612b86565b8015611d1e5780601f10611cf357610100808354040283529160200191611d1e565b820191906000526020600020905b815481529060010190602001808311611d0157829003601f168201915b5050505050908060030160009054906101000a900473ffffffffffffffffffffffffffffffffffffffff16908060040154908060050160009054906101000a900460ff1690806006015490806007018054611d7890612b86565b80601f0160208091040260200160405190810160405280929190818152602001828054611da490612b86565b8015611df15780601f10611dc657610100808354040283529160200191611df1565b820191906000526020600020905b815481529060010190602001808311611dd457829003601f168201915b5050505050905088565b60018060000154905081565b60606006805480602002602001604051908101604052809291908181526020018280548015611e8b57602002820191906000526020600020905b8160009054906101000a900473ffffffffffffffffffffffffffffffffffffffff1673ffffffffffffffffffffffffffffffffffffffff1681526020019060010190808311611e41575b5050505050905090565b60008060000154905081565b3373ffffffffffffffffffffffffffffffffffffffff16600260009054906101000a900473ffffffffffffffffffffffffffffffffffffffff1673ffffffffffffffffffffffffffffffffffffffff1614611f31576040517f08c379a0000000000000000000000000000000000000000000000000000000008152600401611f2890613079565b60405180910390fd5b611f3b6001612130565b6000611f476001612146565b90506000600460008873ffffffffffffffffffffffffffffffffffffffff1673ffffffffffffffffffffffffffffffffffffffff168152602001908152602001600020905085816001019080519060200190611fa49291906121b0565b5084816002019080519060200190611fbd9291906121b0565b5081816000018190555083816003019080519060200190611fdf9291906121b0565b5060008160040181905550868160050160006101000a81548173ffffffffffffffffffffffffffffffffffffffff021916908373ffffffffffffffffffffffffffffffffffffffff160217905550828160060190805190602001906120459291906121b0565b506003879080600181540180825580915050600190039060005260206000200160009091909190916101000a81548173ffffffffffffffffffffffffffffffffffffffff021916908373ffffffffffffffffffffffffffffffffffffffff16021790555080600001547fd297f12b256bb8485a6013fb5e302017018123e99a0ebb20756c09e1707b4b9087878785600401548660050160009054906101000a900473ffffffffffffffffffffffffffffffffffffffff168760060160405161211296959493929190613099565b60405180910390a250505050505050565b6000600380549050905090565b6001816000016000828254019250508190555050565b600081600001549050919050565b600081600001549050600081116121a0576040517f08c379a000000000000000000000000000000000000000000000000000000000815260040161219790613162565b60405180910390fd5b6001810382600001819055505050565b8280546121bc90612b86565b90600052602060002090601f0160209004810192826121de5760008555612225565b82601f106121f757805160ff1916838001178555612225565b82800160010185558215612225579182015b82811115612224578251825591602001919060010190612209565b5b5090506122329190612276565b5090565b50805461224290612b86565b6000825580601f106122545750612273565b601f0160209004906000526020600020908101906122729190612276565b5b50565b5b8082111561228f576000816000905550600101612277565b5090565b6000604051905090565b600080fd5b600080fd5b600073ffffffffffffffffffffffffffffffffffffffff82169050919050565b60006122d2826122a7565b9050919050565b6122e2816122c7565b81146122ed57600080fd5b50565b6000813590506122ff816122d9565b92915050565b600080fd5b600080fd5b6000601f19601f8301169050919050565b7f4e487b7100000000000000000000000000000000000000000000000000000000600052604160045260246000fd5b6123588261230f565b810181811067ffffffffffffffff8211171561237757612376612320565b5b80604052505050565b600061238a612293565b9050612396828261234f565b919050565b600067ffffffffffffffff8211156123b6576123b5612320565b5b6123bf8261230f565b9050602081019050919050565b82818337600083830152505050565b60006123ee6123e98461239b565b612380565b90508281526020810184848401111561240a5761240961230a565b5b6124158482856123cc565b509392505050565b600082601f83011261243257612431612305565b5b81356124428482602086016123db565b91505092915050565b600080600080608085870312156124655761246461229d565b5b6000612473878288016122f0565b945050602085013567ffffffffffffffff811115612494576124936122a2565b5b6124a08782880161241d565b935050604085013567ffffffffffffffff8111156124c1576124c06122a2565b5b6124cd8782880161241d565b925050606085013567ffffffffffffffff8111156124ee576124ed6122a2565b5b6124fa8782880161241d565b91505092959194509250565b6000819050919050565b61251981612506565b82525050565b60006020820190506125346000830184612510565b92915050565b600081519050919050565b600082825260208201905092915050565b6000819050602082019050919050565b61256f816122c7565b82525050565b60006125818383612566565b60208301905092915050565b6000602082019050919050565b60006125a58261253a565b6125af8185612545565b93506125ba83612556565b8060005b838110156125eb5781516125d28882612575565b97506125dd8361258d565b9250506001810190506125be565b5085935050505092915050565b60006020820190508181036000830152612612818461259a565b905092915050565b6000602082840312156126305761262f61229d565b5b600061263e848285016122f0565b91505092915050565b600081519050919050565b600082825260208201905092915050565b60005b83811015612681578082015181840152602081019050612666565b83811115612690576000848401525b50505050565b60006126a182612647565b6126ab8185612652565b93506126bb818560208601612663565b6126c48161230f565b840191505092915050565b6126d8816122c7565b82525050565b600060e08201905081810360008301526126f8818a612696565b9050818103602083015261270c8189612696565b905061271b6040830188612510565b818103606083015261272d8187612696565b905061273c6080830186612510565b81810360a083015261274e8185612696565b905061275d60c08301846126cf565b98975050505050505050565b61277281612506565b811461277d57600080fd5b50565b60008135905061278f81612769565b92915050565b6000602082840312156127ab576127aa61229d565b5b60006127b984828501612780565b91505092915050565b60006020820190506127d760008301846126cf565b92915050565b600080604083850312156127f4576127f361229d565b5b6000612802858286016122f0565b925050602061281385828601612780565b9150509250929050565b600060e082019050612832600083018a612510565b81810360208301526128448189612696565b905081810360408301526128588188612696565b9050818103606083015261286c8187612696565b905061287b6080830186612510565b61288860a08301856126cf565b81810360c083015261289a8184612696565b905098975050505050505050565b60008115159050919050565b6128bd816128a8565b82525050565b600060e0820190506128d8600083018a612510565b81810360208301526128ea8189612696565b905081810360408301526128fe8188612696565b905061290d60608301876126cf565b818103608083015261291f8186612696565b905061292e60a0830185612510565b61293b60c08301846128b4565b98975050505050505050565b60006101008201905061295d600083018b612510565b818103602083015261296f818a612696565b905081810360408301526129838189612696565b905061299260608301886126cf565b61299f6080830187612510565b6129ac60a08301866128b4565b6129b960c0830185612510565b81810360e08301526129cb8184612696565b90509998505050505050505050565b600080600080600060a086880312156129f6576129f561229d565b5b6000612a04888289016122f0565b955050602086013567ffffffffffffffff811115612a2557612a246122a2565b5b612a318882890161241d565b945050604086013567ffffffffffffffff811115612a5257612a516122a2565b5b612a5e8882890161241d565b935050606086013567ffffffffffffffff811115612a7f57612a7e6122a2565b5b612a8b8882890161241d565b925050608086013567ffffffffffffffff811115612aac57612aab6122a2565b5b612ab88882890161241d565b9150509295509295909350565b7f596f752068617665206e6f20726967687420746f2070726f766964652061757460008201527f686f72697a6174696f6e20666f7220766f746500000000000000000000000000602082015250565b6000612b21603383612652565b9150612b2c82612ac5565b604082019050919050565b60006020820190508181036000830152612b5081612b14565b9050919050565b7f4e487b7100000000000000000000000000000000000000000000000000000000600052602260045260246000fd5b60006002820490506001821680612b9e57607f821691505b60208210811415612bb257612bb1612b57565b5b50919050565b60008190508160005260206000209050919050565b60008154612bda81612b86565b612be48186612652565b94506001821660008114612bff5760018114612c1157612c44565b60ff1983168652602086019350612c44565b612c1a85612bb8565b60005b83811015612c3c57815481890152600182019150602081019050612c1d565b808801955050505b50505092915050565b600060e0820190508181036000830152612c67818a612696565b90508181036020830152612c7b8189612696565b9050612c8a60408301886126cf565b612c976060830187612510565b612ca460808301866128b4565b612cb160a0830185612510565b81810360c0830152612cc38184612bcd565b905098975050505050505050565b7f596f75206861766520616c726561647920766f74656400000000000000000000600082015250565b6000612d07601683612652565b9150612d1282612cd1565b602082019050919050565b60006020820190508181036000830152612d3681612cfa565b9050919050565b7f596f752068617665206e6f20726967687420746f20766f746500000000000000600082015250565b6000612d73601983612652565b9150612d7e82612d3d565b602082019050919050565b60006020820190508181036000830152612da281612d66565b9050919050565b7f4e487b7100000000000000000000000000000000000000000000000000000000600052601160045260246000fd5b6000612de382612506565b9150612dee83612506565b9250827fffffffffffffffffffffffffffffffffffffffffffffffffffffffffffffffff03821115612e2357612e22612da9565b5b828201905092915050565b7f596f752068617665206e6f20726967687420746f2072656d6f7665207468697360008201527f20766f7465720000000000000000000000000000000000000000000000000000602082015250565b6000612e8a602683612652565b9150612e9582612e2e565b604082019050919050565b60006020820190508181036000830152612eb981612e7d565b9050919050565b7f4e487b7100000000000000000000000000000000000000000000000000000000600052603260045260246000fd5b6000612efa82612506565b9150612f0583612506565b925082821015612f1857612f17612da9565b5b828203905092915050565b7f4e487b7100000000000000000000000000000000000000000000000000000000600052603160045260246000fd5b6000612f5d82612506565b91507fffffffffffffffffffffffffffffffffffffffffffffffffffffffffffffffff821415612f9057612f8f612da9565b5b600182019050919050565b7f566f74657220646f6573206e6f74206578697374000000000000000000000000600082015250565b6000612fd1601483612652565b9150612fdc82612f9b565b602082019050919050565b6000602082019050818103600083015261300081612fc4565b9050919050565b7f596f752068617665206e6f20617574686f72697a6174696f6e20746f2073657460008201527f2043616e64696461746500000000000000000000000000000000000000000000602082015250565b6000613063602a83612652565b915061306e82613007565b604082019050919050565b6000602082019050818103600083015261309281613056565b9050919050565b600060c08201905081810360008301526130b38189612696565b905081810360208301526130c78188612696565b905081810360408301526130db8187612696565b90506130ea6060830186612510565b6130f760808301856126cf565b81810360a08301526131098184612bcd565b9050979650505050505050565b7f436f756e7465723a2064656372656d656e74206f766572666c6f770000000000600082015250565b600061314c601b83612652565b915061315782613116565b602082019050919050565b6000602082019050818103600083015261317b8161313f565b905091905056fea2646970667358221220b13d09f8a97627a2c3ddde273b783d0cf7f663c063da51b16655f16b50ea23a664736f6c63430008090033",
  "linkReferences": {},
  "deployedLinkReferences": {}
}